:100000000C943F040C9400000C9400000C9400002D
:100010000C9400000C9400000C9400000C94000060
:100020000C9400000C9400000C94EA020C94000064
:100030000C9400000C9400000C9400000C94000040
:100040000C9400000C9400000C9400000C94000030
:040050000C9400000C
:10087E00BFE5BDBFB8E0BEBF0E945904BFE0BABB22
:10088E00BFE7B4BBB1B3B061B1BB0CDE85DE0FDE2A
:0A089E000FB700680FBFFFCFFFCFB8
:0A04B200B0E4B7B9B7E8B6B9089591
:1005A600BBE0B3BFB0E0B2BFBDE7BCBFB9B7B26096
:0405B600B9BF08952C
:0A04BC00B2E2BFBDBAE1BEBD089573
:0A04C60005900D920197E1F70895EB
:1008B200A0E6B0E0E8EAF8E08AE090E00E94630295
:0208C200089597
:1005D4000F920F938F939F93AF93BF93EF93FF93D8
:1005E400EF93FF93BF93BFB7BF93CF93DF93CDB781
:1005F400DEB72897CDBFDEBF21962F923F920091A0
:100604006200109163000F5F1F4F0093620010930C
:10061400630045C04AE050E000916A0010916B000D
:1006240088DE8C01302EB1E02B2E50DF5BC04AE017
:1006340050E000916A0010916B007BDE8B014AE070
:1006440050E077DE8C01302EB2E02B2E3FDF4AC023
:1006540044E650E000916A0010916B006ADE8B0161
:100664004AE050E066DE8C01302EB3E02B2E2EDF04
:1006740039C048EE53E000916A0010916B0059DED6
:100684008B014AE050E055DE8C01302EB4E02B2E75
:100694001DDFB0E0B0936200B093630023C000910B
:1006A400620010916300103009F4013009F4B2CFF4
:1006B4000091620010916300103009F4023009F4D3
:1006C400B6CF0091620010916300103009F403303A
:1006D40009F4BECF0091620010916300103009F458
:1006E400043039F20091600010916100103009F477
:1006F400043609F0A3C0B6E02B2E4FDE0093700041
:1007040010937100009066001090670000916800DB
:10071400109169000019110920E017FD2FEF322F05
:100724004ADF0C831D832E833F8300916400109164
:10073400650020E017FD2FEF322F3DDF088319837A
:100744002A833B830C811D812E813F817F936F938C
:100754005F934F93488159816A817B812FDF4F9149
:100764005F916F917F91088319832A833B83009162
:1007740070001091710020E017FD2FEF322F1BDF66
:10078400488159816A817B81FEDD088319832A832C
:100794003B83009166001091670020E017FD2FEF66
:1007A400322F09DF488159816A817B81B8DD5BDEA4
:1007B4000093740010937500A80160E017FD6FEFBB
:1007C400762F00E412E42FE030E00CDE89019A0178
:1007D400A801415050404093720050937300052F7C
:1007E40010E007FD1FEF07BD46BD8A010F5F1F4FD5
:1007F40042E050E09EDD8B01012F10E007FD1FEF6A
:1008040009BD00917200109173000F5F1F4F42E009
:1008140050E08FDD8B0108BD4AE050E00091740088
:100824001091750086DD8B0100936A0010936B00B4
:10083400B0E0B0936000B09361000AC00091600022
:10084400109161000F5F1F4F0093600010936100CF
:100854003F902F902796CDBFDEBFDF91CF91BF9100
:10086400BFBFBF91FF91EF91FF91EF91BF91AF9106
:0A0874009F918F910F910F9018953E
:1004D0000BB3007F0BBB05B3007005BB28C005B391
:1004E0000F6305BB42C005B3066005BB3EC005B344
:1004F0000B6505BB3AC005B30F6405BB36C005B339
:10050000066605BB32C005B30D6605BB2EC005B33C
:100510000D6705BB2AC005B3076005BB26C005B340
:100520000F6705BB22C005B30F6605BB1EC0B0E058
:100530003B16A9F2B1E03B16B1F2B2E03B16B9F2BC
:10054000B3E03B16C1F2B4E03B16C9F2B5E03B168E
:10055000D1F2B6E03B16D9F2B7E03B16E1F2B8E0D3
:100560003B16E9F2B9E03B16F1F210C00BB30160A3
:100570000BBB18C0BBB3B260BBBB14C00BB30460F1
:100580000BBB10C00BB308600BBB0CC0B1E02B164B
:1005900069F3B2E02B1671F3B3E02B1679F3B4E0F4
:0605A0002B1681F3089503
:10039E0007B1007E07B9022907B9B6B1B064B6B984
:1003AE0006B106FF01C0FCCF04B100936C00B0E0B3
:1003BE00B0936D0005B100936E00B0E0B0936F0086
:1003CE0000916E0010916F00302F222700916C006B
:0A03DE0010916D00022B132B0895FF
:10033600C801BA0197FB092E07260AD077FD04D01B
:100346000CD006D000201AF4709561957F4F089561
:10035600F6F7909581959F4F0895AA1BBB1B51E117
:1003660007C0AA1FBB1FA617B70710F0A61BB70B1F
:10037600881F991F5A95A9F780959095BC01CD01C4
:040386000895089539
:0605BA00E894A8DE08959C
:10030E0047E16627552726F0332312F4E3DE60E833
:04031E00B3DE0895AD
:1000E20000951095209530950F5F1F4F2F4F3F4F72
:0200F20008956F
:10008600F0DF11F19F938F938EE790E0332351F0C9
:10009600369527951795079548175907B4F44F5F76
:1000A6005F4FF4CF80959095019622239AF0000F2A
:1000B600111F221F481759071CF041505040F5CF19
:1000C600002711272227332708C033270FEF102FC9
:0C00D6002FE7322F8F919F91BADF089521
:10006800002329F4112319F4222309F433230895D2
:0000780088
:1000540009D039F041585F4F342F220F3695279538
:04006400362B08959A
:1005C000042E152E262E372E05DE002E112E222E5D
:0405D000332E089529
:1001D4003F932F931F930F93002D112D222D332D19
:1001E400E2DF09F44BC0E62ED52EC42EB32EA22E88
:1001F400912E802E0F911F912F913F91D4DF61F1A9
:100204006E254C195D09403853073CF541387FEFA2
:1002140057077CF180E27724632E522E412E302F33
:10022400222711270027000F111F221F331F441CF0
:10023400551C661C771C28F0481859086A087B0866
:1002440004C0480C591C6A1C7B1C0AF001608A9586
:1002540051F74150504015DF16C00FEF102F2FE714
:100264003FE76623C9F3FEDEB9F3342D30E83425C5
:10027400F3CF0027102F202F302FEECF0F900F90A9
:080284000F900F90EACF0895DE
:1001AA005EDF79F0632F6078220F331F432F5FE7FA
:1001BA00451B55275040269530E8232B3327989422
:0A01CA0003C0442755276627089557
:10038A00042E152E262E372E7CDF002E112E222E1D
:04039A00332E089561
:10028C008EDF81F1E62ED52EC42EB32EA22E912E0A
:10029C00802E002D112D222D332D81DF19F16E258D
:1002AC004C0D5D1D40385307F4F441387FEF570770
:1002BC00FCF088279927AA27BB2770E2B695A7954B
:1002CC0097958795379527951795079520F4880D61
:1002DC00991DAA1DBB1D7A9589F7032F3A2F292F3B
:1002EC00182FCBDE0AC00FEF102F2FE73FE7FACF06
:0C02FC000027102F202F302FF5CF089581
:10032200042E152E262E372EEEDF002E112E222E13
:04033200332E0895C9
:06030800E894F4DE089504
:1000F400C1DF09F441C0E62ED52EC42EB32EA22EA4
:10010400912E802E002D112D222D332DB3DF09F4D5
:100114003DC0842F952F8C199D09B9F072F49095E8
:10012400809501964C2D5D2D883180F53595279568
:10013400179507950197D1F708C08831E8F4B5946D
:10014400A794979487940197D1F766272EF0080D0A
:10015400191D2A1D3B1D09C0801A910AA20AB30A5F
:10016400082D192D2A2D3B2D332312F4B8DF60E816
:1001740088DF01C06DDF16C0002D112D222D332D17
:10018400D6F770DFC1F340E83427F5CF082D192DD9
:100194002A2D3B2D4C2D5D2D6E2D33235AF79FDFD9
:0601A40060E8E8CF0895B9
:0E00780098D021F0662309F030D098940895B6
:10046A009FDEF1F05523C2F04F31A8F44731C1F0B5
:10047A0050F44195495E05C035952795179507951E
:10048A004A95D1F70DC04751000F111F221F331F84
:10049A004A95D1F705C03FE7232F132F032F03C037
:0804AA00662309F019DE089534
:1003E800C9019A01AB01B80197FB092E05260ED069
:1003F80057FD04D014D00AD0001C38F4509540950D
:10040800309521953F4F4F4F5F4F0895F6F79095E0
:100418008095709561957F4F8F4F9F4F0895A1E20A
:100428001A2EAA1BBB1BFD010DC0AA1FBB1FEE1F66
:10043800FF1FA217B307E407F50720F0A21BB30BB1
:10044800E40BF50B661F771F881F991F1A9469F72D
:1004580060957095809590959B01AC01BD01CF0189
:020468000895F5
:0208A80000004E
:0208AA0000004C
:0208AC00FF0348
:0208AE00140034
:0208B000204ED8
:00000001FF
