:100000000C9412030C9400000C9400000C9400005B
:100010000C9400000C9400000C9400000C94000060
:100020000C9400000C9400000C942F020C9400001F
:100030000C9400000C9400000C9400000C94000040
:100040000C9400000C9400000C9400000C94000030
:040050000C9400000C
:10062400BFE5BDBFB8E0BEBF0E942803BFE0BABBB0
:10063400BFEFB4BB1EDE0EDEBFB7B068BFBFFFCFD7
:02064400FFCFE6
:10027600BBE0B3BFB0E0B2BFBCE7BCBFB9B7B260CA
:04028600B9BF08955F
:0A025800B0E0B7B9B7E8B6B90895F1
:0A02E60005900D920197E1F70895CD
:10065000A0E6B0E0E6E4F6E08AE090E00E947301F4
:020660000895FB
:10045E000F928F939F93AF93BF93EF93FF93EF936F
:10046E00FF93BF93BFB7BF932F923F92009160004F
:10047E00109161000F5F1F4F009360001093610099
:10048E0045C04AE050E0009162001091630029DF00
:10049E008C01302EB1E02B2E6DDF5BC04AE050E0B8
:1004AE0000916200109163001CDF8B014AE050E066
:1004BE0018DF8C01302EB2E02B2E5CDF4AC044E6F2
:1004CE0050E000916200109163000BDF8B014AE057
:1004DE0050E007DF8C01302EB3E02B2E4BDF39C0FE
:1004EE0048EE53E00091620010916300FADE8B013A
:1004FE004AE050E0F6DE8C01302EB4E02B2E3ADFCF
:10050E00B0E0B0936000B093610023C00091600032
:10051E0010916100103009F4013009F4B2CF00914E
:10052E00600010916100103009F4023009F4B6CF6A
:10053E000091600010916100103009F4033009F44D
:10054E00BECF0091600010916100103009F40430AC
:10055E0039F20091660010916700103009F40436EC
:10056E0009F040C0B7E02B2EE9DE0093680010932F
:10057E00690020E017FD2FEF322FDDDE40E050E066
:10058E0060EA70E467DE40E050E060E874E49ADE12
:10059E0000936A0010936B0020936C0030936D00F3
:1005AE0040E050E06AE774E455DE40E050E060E27F
:1005BE0071E488DE00936E0010936F00209370003C
:1005CE003093710040E050E060E271E443DE56DEAD
:1005DE000093620010936300B0E0B0936600B09396
:1005EE0067000AC000916600109167000F5F1F4FF1
:1005FE0000936600109367003F902F90BF91BFBF8E
:10060E00BF91FF91EF91FF91EF91BF91AF919F91AC
:06061E008F910F9018956A
:100382000BB3007F0BBB05B3007005BB28C005B3E0
:100392000F6305BB42C005B3066005BB3EC005B393
:1003A2000B6505BB3AC005B30F6405BB36C005B388
:1003B200066605BB32C005B30D6605BB2EC005B38C
:1003C2000D6705BB2AC005B3076005BB26C005B390
:1003D2000F6705BB22C005B30F6605BB1EC0B0E0A8
:1003E2003B16A9F2B1E03B16B1F2B2E03B16B9F20C
:1003F200B3E03B16C1F2B4E03B16C9F2B5E03B16DE
:10040200D1F2B6E03B16D9F2B7E03B16E1F2B8E022
:100412003B16E9F2B9E03B16F1F213C0BBB3B86088
:10042200BBBB1BC00BB304600BBB05B3006805BBB1
:1004320014C00BB302600BBB10C00BB301600BBB4B
:100442000CC0B1E02B1651F3B2E02B1659F3B3E016
:0C0452002B1679F3B4E02B1681F308950B
:10034A0007B1007E07B9022907B9B6B1B064B6B9D8
:10035A0006B106FF01C0FCCF04B10093640005B1E9
:10036A000093650000916500302F222700916400F8
:08037A0010E0022B132B089583
:1002F000C801BA0197FB092E07260AD077FD04D062
:100300000CD006D000201AF4709561957F4F0895A7
:10031000F6F7909581959F4F0895AA1BBB1B51E15D
:1003200007C0AA1FBB1FA617B70710F0A61BB70B65
:10033000881F991F5A95A9F780959095BC01CD010A
:04034000089508957F
:06034400E894E4DE0895D8
:1001100047E16627552726F0332312F4ADDF60E868
:04012000B4DF0895AB
:1000780000951095209530950F5F1F4F2F4F3F4FDC
:020088000895D9
:10008A00EEDF11F19F938F938EE790E0332351F0C7
:10009A00369527951795079548175907B4F44F5F72
:1000AA005F4FF4CF80959095019622239AF0000F26
:1000BA00111F221F481759071CF041505040F5CF15
:1000CA00002711272227332708C033270FEF102FC5
:0C00DA002FE7322F8F919F91B8DF08951F
:10006800002329F4112319F4222309F433230895D2
:0000780088
:1000540009D039F041585F4F342F220F3695279538
:04006400362B08959A
:10026200042E152E262E372E5CDF002E112E222E66
:04027200332E08958A
:10012400E0DF81F1E62ED52EC42EB32EA22E912E21
:10013400802E002D112D222D332DD3DF19F16E25A4
:100144004C0D5D1D40385307F4F441387FEF5707D9
:10015400FCF088279927AA27BB2770E2B695A795B4
:1001640097958795379527951795079520F4880DCA
:10017400991DAA1DBB1D7A9589F7032F3A2F292FA4
:10018400182F81DF0AC00FEF102F2FE73FE7FACFB8
:0C0194000027102F202F302FF5CF0895EA
:1000E600C0DF79F0632F6078220F331F432F5FE75D
:1000F600451B55275040269530E8232B33279894E7
:0A01060003C044275527662708951B
:1002D200042E152E262E372E62DF002E112E222EF0
:0402E200332E08951A
:1001A0003F932F931F930F93002D112D222D332D4D
:1001B0009ADF09F44BC0E62ED52EC42EB32EA22E04
:1001C000912E802E0F911F912F913F918CDF61F125
:1001D0006E254C195D09403853073CF541387FEFD7
:1001E00057077CF180E27724632E522E412E302F68
:1001F000222711270027000F111F221F331F441C25
:10020000551C661C771C28F0481859086A087B089A
:1002100004C0480C591C6A1C7B1C0AF001608A95BA
:1002200051F74150504031DF16C00FEF102F2FE72C
:100230003FE76623C9F318DFB9F3342D30E83425DE
:10024000F3CF0027102F202F302FEECF0F900F90DD
:080250000F900F90EACF089512
:10028A002DDFF1F05523C2F04F31A8F44731C1F008
:10029A0050F44195495E05C0359527951795079500
:1002AA004A95D1F70DC04751000F111F221F331F66
:1002BA004A95D1F705C03FE7232F132F032F03C019
:0802CA00662309F0D4DE08955B
:020646000000B2
:020648000000B0
:01064A0000AF
:01064B0000AE
:02064C000000AC
:02064E000000AA
:00000001FF
