:100000000C94C9000C9400000C9400000C940000A7
:100010000C9400000C9400000C9400000C94000060
:100020000C9400000C9400000C9400000C94000050
:100030000C9400000C9400000C9400000C94000040
:100040000C9400000C9400000C9400000C94000030
:040050000C9400000C
:10019200BFE5BDBFB8E0BEBFCDB7DEB72697CDBFC6
:1001A200DEBF21962F923F92B0E0B883B983B0E0D0
:1001B200BA83BB83B0E0BC83BD830AB30F600ABBC2
:1001C20004B30F6F04BBDFDF02B70D3730F1B0E0CD
:1001D200B2BF0881198198012F5F3F4F288339836D
:1001E20008EE13E0201731074CF0B0E0B883B98372
:1001F2000A811B810F5F1F4F0A831B830A811B81A8
:10020200103009F40C3349F4B0E0BA83BB830C819B
:100212001D810F5F1F4F0C831D834AE050E00A814E
:100222001B8117DF8C01302EB1E02B2E41DF4AE01B
:1002320050E00A811B810DDF8B014AE050E009DFAB
:100242008C01302EB2E02B2E33DF4AE050E00C81DD
:100252001D81FFDE8C01302EB3E02B2E29DF4AE018
:1002620050E00C811D81F5DE8B014AE050E0F1DEA9
:100272008C01302EB4E02B2E1BDFA6CF3F902F90A7
:02028200FFCFAC
:0A018800B3E0B3BFB0E0B2BF0895CA
:1000B2000BB3007F0BBB05B3007005BB28C005B3B3
:1000C2000F6305BB42C005B3066005BB3EC005B366
:1000D2000B6505BB3AC005B30F6405BB36C005B35B
:1000E200066605BB32C005B30D6605BB2EC005B35F
:1000F2000D6705BB2AC005B3076005BB26C005B363
:100102000F6705BB22C005B30F6605BB1EC0B0E07A
:100112003B16A9F2B1E03B16B1F2B2E03B16B9F2DE
:10012200B3E03B16C1F2B4E03B16C9F2B5E03B16B0
:10013200D1F2B6E03B16D9F2B7E03B16E1F2B8E0F5
:100142003B16E9F2B9E03B16F1F210C0BBB3B8605E
:10015200BBBB18C00BB304600BBB14C00BB3026073
:100162000BBB10C00BB301600BBB0CC0B1E02B1674
:1001720069F3B2E02B1671F3B3E02B1679F3B4E016
:060182002B1681F3089525
:10005400C801BA0197FB092E07260AD077FD04D000
:100064000CD006D000201AF4709561957F4F089546
:10007400F6F7909581959F4F0895AA1BBB1B51E1FC
:1000840007C0AA1FBB1FA617B70710F0A61BB70B04
:10009400881F991F5A95A9F780959095BC01CD01A9
:0400A400089508951E
:0A00A80005900D920197E1F708950D
:00000001FF
