:100000000C94C4000C9400000C9400000C940000AC
:100010000C9400000C9400000C9400000C94000060
:100020000C9400000C9400000C9400000C94000050
:100030000C9400000C9400000C9400000C94000040
:100040000C9400000C9400000C9400000C94000030
:040050000C9400000C
:10018800BFE5BDBFB8E0BEBFCDB7DEB72497CDBFD2
:10019800DEBF21962F923F92B0E0B883B983B0E0DA
:1001A800BA83BB830AB30F600ABB04B30F6F04BBE7
:1001B80007B30F7707BB06B307FF11C00A811B817E
:1001C800103009F4003051F4B1E0BA83B0E0BB83D9
:1001D800088119810F5F1F4F0883198303C0B0E09E
:1001E800BA83BB834AE050E0088119812FDF8C0174
:1001F800302EB1E02B2E59DF4AE050E008811981FA
:1002080025DF8B014AE050E021DF8C01302EB2E07F
:100218002B2E4BDF44E650E00881198117DF8B0154
:100228004AE050E013DF8C01302EB3E02B2E3DDF87
:1002380048EE53E00881198109DF8B014AE050E05C
:1002480005DF8C01302EB4E02B2E2FDFB4CF3F908A
:040258002F90FFCF15
:1000B2000BB3007F0BBB05B3007005BB28C005B3B3
:1000C2000F6305BB42C005B3066005BB3EC005B366
:1000D2000B6505BB3AC005B30F6405BB36C005B35B
:1000E200066605BB32C005B30D6605BB2EC005B35F
:1000F2000D6705BB2AC005B3076005BB26C005B363
:100102000F6705BB22C005B30F6605BB1EC0B0E07A
:100112003B16A9F2B1E03B16B1F2B2E03B16B9F2DE
:10012200B3E03B16C1F2B4E03B16C9F2B5E03B16B0
:10013200D1F2B6E03B16D9F2B7E03B16E1F2B8E0F5
:100142003B16E9F2B9E03B16F1F210C0BBB3B8605E
:10015200BBBB18C00BB304600BBB14C00BB3026073
:100162000BBB10C00BB301600BBB0CC0B1E02B1674
:1001720069F3B2E02B1671F3B3E02B1679F3B4E016
:060182002B1681F3089525
:10005400C801BA0197FB092E07260AD077FD04D000
:100064000CD006D000201AF4709561957F4F089546
:10007400F6F7909581959F4F0895AA1BBB1B51E1FC
:1000840007C0AA1FBB1FA617B70710F0A61BB70B04
:10009400881F991F5A95A9F780959095BC01CD01A9
:0400A400089508951E
:0A00A80005900D920197E1F708950D
:00000001FF
