:100000000C942F000C9400000C9400000C94000041
:100010000C9400000C9400000C9400000C94000060
:100020000C9400000C9400000C9400000C94000050
:100030000C9400000C9400000C9400000C94000040
:100040000C9400000C9400000C9400000C94000030
:040050000C9400000C
:10005E00BFE5BDBFB8E0BEBFCDB7DEB72697CDBFFB
:10006E00DEBF2196B0E0B883B983B0E0BA83BB831C
:10007E00B0E0BC83BD8307B3006807BB077F07BB37
:10008E00006407BB0B7F07BB01B30F6F01BB06B349
:10009E0003FF04C0B8B3B068B8BB03C008B30F7792
:1000AE0008BB06B302FF0FC008811981103009F496
:1000BE00003041F4B1E0B883B0E0B98308B3B0E4E6
:1000CE000B2708BB03C0B0E0B883B98306B302FFA9
:1000DE0011C00A811B81103009F4003051F4B1E0D7
:1000EE00BA83B0E0BB830C811D810F5F1F4F0C8361
:1000FE001D8303C0B0E0BA83BB830C8102BBC7CFA4
:02010E00FFCF21
:0A00540005900D920197E1F7089561
:00000001FF
