:100000000C9408010C94D8000C94F2000C9400009D
:100010000C9400000C9400000C9400000C94000060
:100020000C9400000C9400000C9419010C94000036
:100030000C9400000C9400000C9400000C94000040
:100040000C9400000C9400000C9400000C94000030
:040050000C9400000C
:10021000BFE5BDBFB8E0BEBF0E94E501BFE0BABB0D
:10022000BFEFB4BBB1DFBADFBFB7B068BFBFFFCFAE
:02023000FFCFFE
:10018800BBE0B3BFB0E0B2BFBCE7BCBFB9B7B260B9
:04019800B9BF08954E
:10019C00B0ECBBBFBFE0B5BF01B3077F01BB0B7FAA
:0401AC0001BB0895F6
:0A00540005900D920197E1F7089561
:1003CA00A0E6B0E0E0ECF3E089E090E00E942A00C9
:0203DA00089584
:100232000F920F938F939F93AF93BF93EF93FF937D
:10024200EF93FF93BF93BFB7BF932F923F9200915B
:100252006000109161000F5F1F4F009360001093C8
:10026200610041C04AE050E00091620010916300D9
:1002720060DF8C01302EB1E02B2EF0DE57C04AE059
:1002820050E0009162001091630053DF8B014AE05D
:1002920050E04FDF8C01302EB2E02B2EDFDE46C065
:1002A2004AE050E0009164001091650042DF8C0149
:1002B200302EB3E02B2ED2DE39C04AE050E000915E
:1002C20064001091650035DF8B014AE050E031DFB8
:1002D2008C01302EB4E02B2EC1DEB0E0B093600072
:1002E200B093610023C00091600010916100103052
:1002F20009F4013009F4B6CF009160001091610059
:10030200103009F4023009F4BACF00916000109164
:100312006100103009F4033009F4C2CF009160008B
:1003220010916100103009F4043039F20091680034
:100332000023A9F10091660010916700133009F4BF
:10034200083E19F500916200109163000F5F1F4F84
:100352000093620010936300103009F40C3379F4B7
:10036200B0E0B0936200B09363000091640010911A
:1003720065000F5F1F4F0093640010936500B0E0AB
:10038200B0936600B09367000AC0009166001091B6
:1003920067000F5F1F4F00936600109367003F9046
:1003A2002F90BF91BFBFBF91FF91EF91FF91EF914E
:0E03B200BF91AF919F918F910F910F90189571
:10005E000BB3007F0BBB05B3007005BB28C005B307
:10006E000F6305BB42C005B3066005BB3EC005B3BA
:10007E000B6505BB3AC005B30F6405BB36C005B3AF
:10008E00066605BB32C005B30D6605BB2EC005B3B3
:10009E000D6705BB2AC005B3076005BB26C005B3B7
:1000AE000F6705BB22C005B30F6605BB1EC0B0E0CF
:1000BE003B16A9F2B1E03B16B1F2B2E03B16B9F233
:1000CE00B3E03B16C1F2B4E03B16C9F2B5E03B1605
:1000DE00D1F2B6E03B16D9F2B7E03B16E1F2B8E04A
:1000EE003B16E9F2B9E03B16F1F210C0BBB3B860B3
:1000FE00BBBB18C00BB304600BBB14C00BB30260C8
:10010E000BBB10C00BB301600BBB0CC0B1E02B16C8
:10011E0069F3B2E02B1671F3B3E02B1679F3B4E06A
:06012E002B1681F3089579
:10013400C801BA0197FB092E07260AD077FD04D01F
:100144000CD006D000201AF4709561957F4F089565
:10015400F6F7909581959F4F0895AA1BBB1B51E11B
:1001640007C0AA1FBB1FA617B70710F0A61BB70B23
:10017400881F991F5A95A9F780959095BC01CD01C8
:04018400089508953D
:1001E4000F93EF93FF93BF93BFB7BF930091680042
:1001F4000023B0E009F4B1E00B2F00936800BF9135
:0C020400BFBFBF91FF91EF910F911895C3
:1001B000EF93FF93BF93BFB7BF93B0E0B0936600D8
:1001C000B0936700B0E0B0936400B0936500B0E016
:1001D000B0936200B0936300BF91BFBFBF91FF9126
:0401E000EF911895EE
:0203C00000003B
:0203C200000039
:0203C400000037
:0203C600000035
:0103C8000034
:00000001FF
