:100000000C9442020C942C020C9437020C940000C5
:100010000C9400000C9400000C9400000C94000060
:100020000C9400000C9400000C94B1020C9400009D
:100030000C9400000C9400000C9400000C94000040
:100040000C9454020C9400000C9400000C940000DA
:040050000C9400000C
:10048400BFE5BDBFB8E0BEBF0E948D03BFE0BABBED
:10049400BFEFB4BBC8DFBDDFAFDFBFB7B068BFBF5E
:0404A400FFCFFFCFB8
:0A042A00B0ECBBBFBFE0B5BF089502
:10041600BBE0B3BFB0E0B2BFBDE7BCBFB9B7B26027
:04042600B9BF0895BD
:1003FC00B0E4B7B9B7E8B6B9B6B1B860B6B906B13A
:0A040C00006206B9B0E4B0BF089525
:0A04340005900D920197E1F708957D
:10071A00A0E6B0E0E0E1F7E08AE090E00E941A0289
:02072A00089530
:1004A8000F920F938F939F93AF93BF93EF93FF9305
:1004B800BF93BFB7BF9304B10093620005B1009327
:1004C800630000916300302F22270091620010E042
:1004D800022B132B009368001093690020E017FD8E
:1004E8002FEF322F84DF40E050E060EA70E4A6DFAF
:1004F80040E050E060E874E44CDF00936E00109335
:100508006F00209370003093710040E050E06AE77C
:1005180074E494DF40E050E060E271E43ADF009375
:100528006A0010936B0020936C0030936D0040E0DC
:1005380050E060E271E482DF36DF009360001093E0
:100548006100BF91BFBFBF91FF91EF91BF91AF9184
:0A0558009F918F910F910F9018955D
:06043E00689467DE0895DA
:1001100047E16627552726F0332312F4DBDF60E83A
:04012000ABDF0895B4
:1000D40000951095209530950F5F1F4F2F4F3F4F80
:0200E40008957D
:10007800F7DF11F19F938F938EE790E0332351F0D0
:10008800369527951795079548175907B4F44F5F84
:100098005F4FF4CF80959095019622239AF0000F38
:1000A800111F221F481759071CF041505040F5CF27
:1000B800002711272227332708C033270FEF102FD7
:0C00C8002FE7322F8F919F91C1DF089528
:10006800002329F4112319F4222309F433230895D2
:0000780088
:1000540009D039F041585F4F342F220F3695279538
:04006400362B08959A
:10044400042E152E262E372E6BDE002E112E222E74
:04045400332E0895A6
:10012400E0DF81F1E62ED52EC42EB32EA22E912E21
:10013400802E002D112D222D332DD3DF19F16E25A4
:100144004C0D5D1D40385307F4F441387FEF5707D9
:10015400FCF088279927AA27BB2770E2B695A795B4
:1001640097958795379527951795079520F4880DCA
:10017400991DAA1DBB1D7A9589F7032F3A2F292FA4
:10018400182F78DF0AC00FEF102F2FE73FE7FACFC1
:0C0194000027102F202F302FF5CF0895EA
:1000E600C0DF79F0632F6078220F331F432F5FE75D
:1000F600451B55275040269530E8232B33279894E7
:0A01060003C044275527662708951B
:10039A00042E152E262E372EFEDE002E112E222E8C
:0403AA00332E089551
:1001A0003F932F931F930F93002D112D222D332D4D
:1001B0009ADF09F44BC0E62ED52EC42EB32EA22E04
:1001C000912E802E0F911F912F913F918CDF61F125
:1001D0006E254C195D09403853073CF541387FEFD7
:1001E00057077CF180E27724632E522E412E302F68
:1001F000222711270027000F111F221F331F441C25
:10020000551C661C771C28F0481859086A087B089A
:1002100004C0480C591C6A1C7B1C0AF001608A95BA
:1002200051F74150504028DF16C00FEF102F2FE735
:100230003FE76623C9F318DFB9F3342D30E83425DE
:10024000F3CF0027102F202F302FEECF0F900F90DD
:080250000F900F90EACF089512
:1003AE009BDEF1F05523C2F04F31A8F44731C1F076
:1003BE0050F44195495E05C03595279517950795DB
:1003CE004A95D1F70DC04751000F111F221F331F41
:1003DE004A95D1F705C03FE7232F132F032F03C0F4
:0803EE00662309F070DE08959A
:0603F600E8948BDE08957F
:100562000F921F922F923F924F925F926F927F92C1
:100572008F929F92AF92BF92CF92DF92EF920F93A0
:100582001F932F933F934F935F936F937F938F9319
:100592009F93AF93BF93EF93FF93EF93FF93BF9319
:1005A200BFB7BF932F923F920091640010916500F4
:1005B2000F5F1F4F009364001093650045C04AE02F
:1005C20050E00091600010916100BCDE8C01302E81
:1005D200B1E02B2E40DE5BC04AE050E000916000AB
:1005E20010916100AFDE8B014AE050E0ABDE8C017E
:1005F200302EB2E02B2E2FDE4AC044E650E00091AE
:100602006000109161009EDE8B014AE050E09ADEAC
:100612008C01302EB3E02B2E1EDE39C048EE53E0A3
:1006220000916000109161008DDE8B014AE050E084
:1006320089DE8C01302EB4E02B2E0DDEB0E0B093BB
:100642006400B093650023C00091640010916500BE
:10065200103009F4013009F4B2CF00916400109116
:100662006500103009F4023009F4B6CF009164003D
:1006720010916500103009F4033009F4BECF0091E7
:10068200640010916500103009F4043039F20091D1
:10069200660010916700103009F4043649F4B7E09F
:1006A2002B2E47DEB0E0B0936600B09367000AC01D
:1006B20000916600109167000F5F1F4F0093660064
:1006C200109367003F902F90BF91BFBFBF91FF91E2
:1006D200EF91FF91EF91BF91AF919F918F917F9198
:1006E2006F915F914F913F912F911F910F91EF90D9
:1006F200DF90CF90BF90AF909F908F907F906F9040
:0E0702005F904F903F902F901F900F90189592
:100258000BB3007F0BBB05B3007005BB28C005B30B
:100268000F6305BB42C005B3066005BB3EC005B3BE
:100278000B6505BB3AC005B30F6405BB36C005B3B3
:10028800066605BB32C005B30D6605BB2EC005B3B7
:100298000D6705BB2AC005B3076005BB26C005B3BB
:1002A8000F6705BB22C005B30F6605BB1EC0B0E0D3
:1002B8003B16A9F2B1E03B16B1F2B2E03B16B9F237
:1002C800B3E03B16C1F2B4E03B16C9F2B5E03B1609
:1002D800D1F2B6E03B16D9F2B7E03B16E1F2B8E04E
:1002E8003B16E9F2B9E03B16F1F213C0BBB3B860B4
:1002F800BBBB1BC00BB304600BBB05B3006805BBDD
:1003080014C00BB302600BBB10C00BB301600BBB76
:100318000CC0B1E02B1651F3B2E02B1659F3B3E041
:0C0328002B1679F3B4E02B1681F3089536
:1003340007B1007E07B9022907B9B6B1B064B6B9EE
:0203440008951A
:10034600C801BA0197FB092E07260AD077FD04D00B
:100356000CD006D000201AF4709561957F4F089551
:10036600F6F7909581959F4F0895AA1BBB1B51E107
:1003760007C0AA1FBB1FA617B70710F0A61BB70B0F
:10038600881F991F5A95A9F780959095BC01CD01B4
:040396000895089529
:10046E00EF93FF93BF93BFB7BF93BF91BFBFBF9132
:06047E00FF91EF911895BB
:10045800EF93FF93BF93BFB7BF93BF91BFBFBF9148
:06046800FF91EF911895D1
:020710000000E7
:0107120000E6
:0107130000E5
:020714000000E3
:020716000000E1
:020718000000DF
:00000001FF
