:100000000C942F000C9400000C9400000C94000041
:100010000C9400000C9400000C9400000C94000060
:100020000C9400000C9400000C9400000C94000050
:100030000C9400000C9400000C9400000C94000040
:100040000C9400000C9400000C9400000C94000030
:040050000C9400000C
:10005E00BFE5BDBFB8E0BEBFCDB7DEB72297CDBFFF
:10006E00DEBF2196B0E0B883B98307B3006807BB43
:10007E00077F07BB006407BB0B7F07BB06B303FFFD
:10008E0004C0B8B3B068B8BB03C008B30F7708BBE1
:10009E0006B302FF04C0B0E0B883B9830EC0088176
:1000AE001981103009F4003041F4B1E0B883B0E0AA
:0E00BE00B98308B3B0E40B2708BBE0CFFFCF37
:0A00540005900D920197E1F7089561
:00000001FF
