:100000000C942F000C9400000C9400000C94000041
:100010000C9400000C9400000C9400000C94000060
:100020000C9400000C9400000C9400000C94000050
:100030000C9400000C9400000C9400000C94000040
:100040000C9400000C9400000C9400000C94000030
:040050000C9400000C
:10005E00BFE5BDBFB8E0BEBF0AB30F600ABB04B3B5
:10006E000F6F04BB0BB301600BBBB6E6B5BB1BE059
:10007E0003E60A95F1F71A95E1F70BB30E7F0BBB6A
:10008E0002600BBBBFE4B5BB1BE003E60A95F1F7BC
:10009E001A95E1F70BB30D7F0BBB04600BBBBBE5F1
:1000AE00B5BB1BE003E60A95F1F71A95E1F70BB322
:1000BE000B7F0BBB08600BBBB6E0B5BB1BE003E6CA
:1000CE000A95F1F71A95E1F7BBB3B77FBBBBCACF61
:0200DE00FFCF52
:0A00540005900D920197E1F7089561
:00000001FF
