:100000000C940B010C94D8000C94F2000C9400009A
:100010000C9400000C9400000C9400000C94000060
:100020000C9400000C9400000C941C010C94000033
:100030000C9400000C9400000C9400000C94000040
:100040000C9400000C9400000C9400000C94000030
:040050000C9400000C
:10021600BFE5BDBFB8E0BEBF0E94E301BFE0BABB09
:10022600BFEFB4BBAEDFB7DFBFB7B068BFBFFFCFAE
:02023600FFCFF8
:10018800BBE0B3BFB0E0B2BFBCE7BCBFB9B7B260B9
:04019800B9BF08954E
:10019C00BFE0B5BFB0ECBBBF01B3077F01BB0B7FAA
:0401AC0001BB0895F6
:0A00540005900D920197E1F7089561
:1003C600A0E6B0E0EEEBF3E088E090E00E942A00C1
:0203D600089588
:100238000F920F938F939F93AF93BF93EF93FF9377
:10024800EF93FF93BF93BFB7BF932F923F92009155
:100258006000109161000F5F1F4F009360001093C2
:10026800610041C04AE050E00091620010916300D3
:100278005DDF8C01302EB4E02B2EEDDE57C04AE056
:1002880050E0009162001091630050DF8B014AE05A
:1002980050E04CDF8C01302EB3E02B2EDCDE46C064
:1002A8004AE050E000916600109167003FDF8C0142
:1002B800302EB2E02B2ECFDE39C04AE050E000915C
:1002C80066001091670032DF8B014AE050E02EDFB4
:1002D8008C01302EB1E02B2EBEDEB0E0B093600072
:1002E800B093610023C0009160001091610010304C
:1002F80009F4013009F4B6CF009160001091610053
:10030800103009F4023009F4BACF0091600010915E
:100318006100103009F4033009F4C2CF0091600085
:1003280010916100103009F4043039F20091640032
:1003380010916500133009F4083E19F50091620028
:10034800109163000F5F1F4F0093620010936300CA
:10035800103009F40C3379F4B0E0B0936200B09334
:10036800630000916600109167000F5F1F4F0093B4
:10037800660010936700B0E0B0936400B093650026
:100388000AC000916400109165000F5F1F4F009331
:100398006400109365003F902F90BF91BFBFBF913D
:1003A800FF91EF91FF91EF91BF91AF919F918F9145
:0603B8000F910F90189553
:10005E000BB3007F0BBB05B3007005BB28C005B307
:10006E000F6305BB42C005B3066005BB3EC005B3BA
:10007E000B6505BB3AC005B30F6405BB36C005B3AF
:10008E00066605BB32C005B30D6605BB2EC005B3B3
:10009E000D6705BB2AC005B3076005BB26C005B3B7
:1000AE000F6705BB22C005B30F6605BB1EC0B0E0CF
:1000BE003B16A9F2B1E03B16B1F2B2E03B16B9F233
:1000CE00B3E03B16C1F2B4E03B16C9F2B5E03B1605
:1000DE00D1F2B6E03B16D9F2B7E03B16E1F2B8E04A
:1000EE003B16E9F2B9E03B16F1F210C00BB301601A
:1000FE000BBB18C0BBB3B260BBBB14C00BB3046068
:10010E000BBB10C00BB308600BBB0CC0B1E02B16C1
:10011E0069F3B2E02B1671F3B3E02B1679F3B4E06A
:06012E002B1681F3089579
:10013400C801BA0197FB092E07260AD077FD04D01F
:100144000CD006D000201AF4709561957F4F089565
:10015400F6F7909581959F4F0895AA1BBB1B51E11B
:1001640007C0AA1FBB1FA617B70710F0A61BB70B23
:10017400881F991F5A95A9F780959095BC01CD01C8
:04018400089508953D
:1001E4000F931F93EF93FF93BF93BFB7BF930091F8
:1001F4006600109167000F5F1F4F00936600109315
:100204006700BF91BFBFBF91FF91EF911F910F9105
:0202140018953B
:1001B000EF93FF93BF93BFB7BF93B0E0B0936400DA
:1001C000B0936500B0E0B0936600B0936700B0E014
:1001D000B0936200B0936300BF91BFBFBF91FF9126
:0401E000EF911895EE
:0203BE0000003D
:0203C00000003B
:0203C200000039
:0203C400000037
:00000001FF
